{
  "contractName": "KURASAH",
  "abi": [
    {
      "inputs": [],
      "stateMutability": "nonpayable",
      "type": "constructor"
    },
    {
      "anonymous": false,
      "inputs": [
        {
          "indexed": false,
          "internalType": "address",
          "name": "winner",
          "type": "address"
        },
        {
          "indexed": false,
          "internalType": "string",
          "name": "bidName",
          "type": "string"
        },
        {
          "indexed": false,
          "internalType": "uint256",
          "name": "amout",
          "type": "uint256"
        }
      ],
      "name": "BidWinner",
      "type": "event"
    },
    {
      "anonymous": false,
      "inputs": [
        {
          "indexed": false,
          "internalType": "string",
          "name": "name",
          "type": "string"
        }
      ],
      "name": "TenderCreated",
      "type": "event"
    },
    {
      "stateMutability": "payable",
      "type": "fallback",
      "payable": true
    },
    {
      "inputs": [
        {
          "internalType": "address",
          "name": "",
          "type": "address"
        }
      ],
      "name": "bidderId",
      "outputs": [
        {
          "internalType": "uint256",
          "name": "",
          "type": "uint256"
        }
      ],
      "stateMutability": "view",
      "type": "function",
      "constant": true
    },
    {
      "inputs": [
        {
          "internalType": "string",
          "name": "",
          "type": "string"
        },
        {
          "internalType": "uint256",
          "name": "",
          "type": "uint256"
        }
      ],
      "name": "bidding",
      "outputs": [
        {
          "internalType": "address payable",
          "name": "bidder",
          "type": "address"
        },
        {
          "internalType": "uint256",
          "name": "biddingAmount",
          "type": "uint256"
        }
      ],
      "stateMutability": "view",
      "type": "function",
      "constant": true
    },
    {
      "inputs": [
        {
          "internalType": "string",
          "name": "",
          "type": "string"
        }
      ],
      "name": "tenderInfo",
      "outputs": [
        {
          "internalType": "bool",
          "name": "open",
          "type": "bool"
        },
        {
          "internalType": "string",
          "name": "name",
          "type": "string"
        },
        {
          "internalType": "uint256",
          "name": "bids",
          "type": "uint256"
        },
        {
          "internalType": "uint256",
          "name": "LowestBid",
          "type": "uint256"
        },
        {
          "internalType": "address payable",
          "name": "winner",
          "type": "address"
        },
        {
          "internalType": "uint256",
          "name": "winId",
          "type": "uint256"
        },
        {
          "internalType": "uint256",
          "name": "start",
          "type": "uint256"
        },
        {
          "internalType": "uint256",
          "name": "end",
          "type": "uint256"
        }
      ],
      "stateMutability": "view",
      "type": "function",
      "constant": true
    },
    {
      "stateMutability": "payable",
      "type": "receive",
      "payable": true
    },
    {
      "inputs": [
        {
          "internalType": "string",
          "name": "_name",
          "type": "string"
        }
      ],
      "name": "createTender",
      "outputs": [],
      "stateMutability": "nonpayable",
      "type": "function"
    },
    {
      "inputs": [],
      "name": "contractBalance",
      "outputs": [
        {
          "internalType": "uint256",
          "name": "",
          "type": "uint256"
        }
      ],
      "stateMutability": "view",
      "type": "function",
      "constant": true
    },
    {
      "inputs": [],
      "name": "balanceOf",
      "outputs": [
        {
          "internalType": "uint256",
          "name": "",
          "type": "uint256"
        }
      ],
      "stateMutability": "view",
      "type": "function",
      "constant": true
    },
    {
      "inputs": [
        {
          "internalType": "string",
          "name": "_tender",
          "type": "string"
        }
      ],
      "name": "numberOfBids",
      "outputs": [
        {
          "internalType": "uint256",
          "name": "",
          "type": "uint256"
        }
      ],
      "stateMutability": "view",
      "type": "function",
      "constant": true
    },
    {
      "inputs": [
        {
          "internalType": "string",
          "name": "_name",
          "type": "string"
        },
        {
          "internalType": "address payable",
          "name": "user",
          "type": "address"
        }
      ],
      "name": "bid",
      "outputs": [],
      "stateMutability": "payable",
      "type": "function",
      "payable": true
    },
    {
      "inputs": [
        {
          "internalType": "string",
          "name": "_name",
          "type": "string"
        }
      ],
      "name": "closeBid",
      "outputs": [],
      "stateMutability": "nonpayable",
      "type": "function"
    },
    {
      "inputs": [
        {
          "internalType": "string",
          "name": "_name",
          "type": "string"
        }
      ],
      "name": "announce",
      "outputs": [],
      "stateMutability": "nonpayable",
      "type": "function"
    },
    {
      "inputs": [
        {
          "internalType": "string",
          "name": "_Info",
          "type": "string"
        }
      ],
      "name": "info",
      "outputs": [
        {
          "internalType": "string",
          "name": "name",
          "type": "string"
        },
        {
          "internalType": "bool",
          "name": "open",
          "type": "bool"
        },
        {
          "internalType": "uint256",
          "name": "bids",
          "type": "uint256"
        },
        {
          "internalType": "uint256",
          "name": "LowestBid",
          "type": "uint256"
        },
        {
          "internalType": "address",
          "name": "winner",
          "type": "address"
        },
        {
          "internalType": "uint256",
          "name": "winId",
          "type": "uint256"
        }
      ],
      "stateMutability": "view",
      "type": "function",
      "constant": true
    },
    {
      "inputs": [
        {
          "internalType": "string",
          "name": "_name",
          "type": "string"
        },
        {
          "internalType": "address payable",
          "name": "user",
          "type": "address"
        }
      ],
      "name": "withdraw",
      "outputs": [],
      "stateMutability": "nonpayable",
      "type": "function"
    }
  ],
  "bytecode": "0x608060405234801561001057600080fd5b50336000806101000a81548173ffffffffffffffffffffffffffffffffffffffff021916908373ffffffffffffffffffffffffffffffffffffffff160217905550611946806100606000396000f3fe6080604052600436106100ab5760003560e01c8063d7a0c12111610064578063d7a0c121146101ce578063dd48622e1461020c578063ea0a523714610235578063ecc6ab761461025e578063efaa64fa1461029b578063fce59c2f146102c4576100b2565b806317fab0a0146100b457806327c15c51146100f65780632f64cdf01461011f578063722713f71461015c57806376d33951146101875780638b7afe2e146101a3576100b2565b366100b257005b005b3480156100c057600080fd5b506100db60048036038101906100d69190611139565b610308565b6040516100ed96959493929190611548565b60405180910390f35b34801561010257600080fd5b5061011d60048036038101906101189190611139565b6104ab565b005b34801561012b57600080fd5b5061014660048036038101906101419190611110565b6105d5565b6040516101539190611630565b60405180910390f35b34801561016857600080fd5b506101716105ed565b60405161017e9190611630565b60405180910390f35b6101a1600480360381019061019c919061117a565b610611565b005b3480156101af57600080fd5b506101b861098e565b6040516101c59190611630565b60405180910390f35b3480156101da57600080fd5b506101f560048036038101906101f091906111ce565b6109ad565b604051610203929190611478565b60405180910390f35b34801561021857600080fd5b50610233600480360381019061022e919061117a565b610a14565b005b34801561024157600080fd5b5061025c60048036038101906102579190611139565b610bbc565b005b34801561026a57600080fd5b5061028560048036038101906102809190611139565b610d51565b6040516102929190611630565b60405180910390f35b3480156102a757600080fd5b506102c260048036038101906102bd9190611139565b610dd9565b005b3480156102d057600080fd5b506102eb60048036038101906102e69190611139565b610eb3565b6040516102ff9897969594939291906114a1565b60405180910390f35b606060008060008060006002876040516103229190611423565b90815260200160405180910390206001016002886040516103439190611423565b908152602001604051809103902060000160009054906101000a900460ff166002896040516103729190611423565b90815260200160405180910390206002015460028a6040516103949190611423565b90815260200160405180910390206003015460028b6040516103b69190611423565b908152602001604051809103902060040160009054906101000a900473ffffffffffffffffffffffffffffffffffffffff1660028c6040516103f89190611423565b908152602001604051809103902060050154858054610416906117fb565b80601f0160208091040260200160405190810160405280929190818152602001828054610442906117fb565b801561048f5780601f106104645761010080835404028352916020019161048f565b820191906000526020600020905b81548152906001019060200180831161047257829003601f168201915b5050505050955095509550955095509550955091939550919395565b60008054906101000a900473ffffffffffffffffffffffffffffffffffffffff1673ffffffffffffffffffffffffffffffffffffffff163373ffffffffffffffffffffffffffffffffffffffff1614610539576040517f08c379a0000000000000000000000000000000000000000000000000000000008152600401610530906115b0565b60405180910390fd5b600060028260405161054b9190611423565b9081526020016040518091039020905060018160000160006101000a81548160ff02191690831515021790555081816001019080519060200190610590929190610fc6565b504281600601819055507f2ceca6f43d0dfb8cb2d6b534a530b582d62ea38225f72769473f0dbf31cb0a8a826040516105c99190611526565b60405180910390a15050565b60036020528060005260406000206000915090505481565b6000803373ffffffffffffffffffffffffffffffffffffffff163190508091505090565b60006002836040516106239190611423565b908152602001604051809103902090506001816002015461064491906116d3565b8160020181905550600081600201549050600115158260000160009054906101000a900460ff161515146106ad576040517f08c379a00000000000000000000000000000000000000000000000000000000081526004016106a4906115d0565b60405180910390fd5b60003414156106f1576040517f08c379a00000000000000000000000000000000000000000000000000000000081526004016106e8906115f0565b60405180910390fd5b600034905060405180604001604052808573ffffffffffffffffffffffffffffffffffffffff168152602001828152506001866040516107319190611423565b9081526020016040518091039020600084815260200190815260200160002060008201518160000160006101000a81548173ffffffffffffffffffffffffffffffffffffffff021916908373ffffffffffffffffffffffffffffffffffffffff1602179055506020820151816001015590505081600360008673ffffffffffffffffffffffffffffffffffffffff1673ffffffffffffffffffffffffffffffffffffffff1681526020019081526020016000208190555060008360030154141561088d573073ffffffffffffffffffffffffffffffffffffffff166108fc829081150290604051600060405180830381858888f1935050505015801561083b573d6000803e3d6000fd5b50808360030181905550838360040160006101000a81548173ffffffffffffffffffffffffffffffffffffffff021916908373ffffffffffffffffffffffffffffffffffffffff160217905550610987565b82600301548111156108e5573073ffffffffffffffffffffffffffffffffffffffff166108fc829081150290604051600060405180830381858888f193505050501580156108df573d6000803e3d6000fd5b50610986565b8260030154811015610985573073ffffffffffffffffffffffffffffffffffffffff166108fc829081150290604051600060405180830381858888f19350505050158015610937573d6000803e3d6000fd5b50838360040160006101000a81548173ffffffffffffffffffffffffffffffffffffffff021916908373ffffffffffffffffffffffffffffffffffffffff1602179055508083600301819055505b5b5b5050505050565b60003073ffffffffffffffffffffffffffffffffffffffff1631905090565b600182805160208101820180518482526020830160208501208183528095505050505050602052806000526040600020600091509150508060000160009054906101000a900473ffffffffffffffffffffffffffffffffffffffff16908060010154905082565b6000600283604051610a269190611423565b908152602001604051809103902090506000600184604051610a489190611423565b90815260200160405180910390206000600360008673ffffffffffffffffffffffffffffffffffffffff1673ffffffffffffffffffffffffffffffffffffffff168152602001908152602001600020548152602001908152602001600020905060008160010154118015610b0b57508273ffffffffffffffffffffffffffffffffffffffff168160000160009054906101000a900473ffffffffffffffffffffffffffffffffffffffff1673ffffffffffffffffffffffffffffffffffffffff16145b8015610b2c5750600015158260000160009054906101000a900460ff161515145b610b6b576040517f08c379a0000000000000000000000000000000000000000000000000000000008152600401610b6290611610565b60405180910390fd5b8273ffffffffffffffffffffffffffffffffffffffff166108fc82600101549081150290604051600060405180830381858888f19350505050158015610bb5573d6000803e3d6000fd5b5050505050565b6000600282604051610bce9190611423565b9081526020016040518091039020905060008054906101000a900473ffffffffffffffffffffffffffffffffffffffff1673ffffffffffffffffffffffffffffffffffffffff166108fc82600301549081150290604051600060405180830381858888f19350505050158015610c48573d6000803e3d6000fd5b506000600183604051610c5b9190611423565b90815260200160405180910390206000600360008560040160009054906101000a900473ffffffffffffffffffffffffffffffffffffffff1673ffffffffffffffffffffffffffffffffffffffff1673ffffffffffffffffffffffffffffffffffffffff1681526020019081526020016000205481526020019081526020016000209050600081600101819055507f16032b204f57bdd1121676ae824de347cf82e44aef682df4005ac12c2d56c89b8260040160009054906101000a900473ffffffffffffffffffffffffffffffffffffffff16848460030154604051610d449392919061143a565b60405180910390a1505050565b600080600283604051610d649190611423565b90815260200160405180910390209050600115158160000160009054906101000a900460ff16151514610dcc576040517f08c379a0000000000000000000000000000000000000000000000000000000008152600401610dc3906115d0565b60405180910390fd5b8060020154915050919050565b60008054906101000a900473ffffffffffffffffffffffffffffffffffffffff1673ffffffffffffffffffffffffffffffffffffffff163373ffffffffffffffffffffffffffffffffffffffff1614610e67576040517f08c379a0000000000000000000000000000000000000000000000000000000008152600401610e5e906115b0565b60405180910390fd5b6000600282604051610e799190611423565b9081526020016040518091039020905060008160000160006101000a81548160ff021916908315150217905550610eaf82610bbc565b5050565b6002818051602081018201805184825260208301602085012081835280955050505050506000915090508060000160009054906101000a900460ff1690806001018054610eff906117fb565b80601f0160208091040260200160405190810160405280929190818152602001828054610f2b906117fb565b8015610f785780601f10610f4d57610100808354040283529160200191610f78565b820191906000526020600020905b815481529060010190602001808311610f5b57829003601f168201915b5050505050908060020154908060030154908060040160009054906101000a900473ffffffffffffffffffffffffffffffffffffffff16908060050154908060060154908060070154905088565b828054610fd2906117fb565b90600052602060002090601f016020900481019282610ff4576000855561103b565b82601f1061100d57805160ff191683800117855561103b565b8280016001018555821561103b579182015b8281111561103a57825182559160200191906001019061101f565b5b509050611048919061104c565b5090565b5b8082111561106557600081600090555060010161104d565b5090565b600061107c6110778461167c565b61164b565b90508281526020810184848401111561109457600080fd5b61109f8482856117b9565b509392505050565b6000813590506110b6816118cb565b92915050565b6000813590506110cb816118e2565b92915050565b600082601f8301126110e257600080fd5b81356110f2848260208601611069565b91505092915050565b60008135905061110a816118f9565b92915050565b60006020828403121561112257600080fd5b6000611130848285016110a7565b91505092915050565b60006020828403121561114b57600080fd5b600082013567ffffffffffffffff81111561116557600080fd5b611171848285016110d1565b91505092915050565b6000806040838503121561118d57600080fd5b600083013567ffffffffffffffff8111156111a757600080fd5b6111b3858286016110d1565b92505060206111c4858286016110bc565b9150509250929050565b600080604083850312156111e157600080fd5b600083013567ffffffffffffffff8111156111fb57600080fd5b611207858286016110d1565b9250506020611218858286016110fb565b9150509250929050565b61122b81611783565b82525050565b61123a8161173b565b82525050565b61124981611729565b82525050565b6112588161174d565b82525050565b6000611269826116ac565b61127381856116b7565b93506112838185602086016117c8565b61128c816118ba565b840191505092915050565b60006112a2826116ac565b6112ac81856116c8565b93506112bc8185602086016117c8565b80840191505092915050565b60006112d56021836116b7565b91507f6f6e6c79206f776e65722063616e2072756e20746869732066756e6374696f6e60008301527f20000000000000000000000000000000000000000000000000000000000000006020830152604082019050919050565b600061133b601c836116b7565b91507f536f727279212042696464696e6720697320636c6f736564206e6f77000000006000830152602082019050919050565b600061137b6018836116b7565b91507f76616c75652073686f756c64206e6f74206265207a65726f00000000000000006000830152602082019050919050565b60006113bb6039836116b7565b91507f6269642077696e6e65722063616e742077697468647261772c2062696464657260008301527f20646f65736e742065786973742c62696420636c6f73656420000000000000006020830152604082019050919050565b61141d81611779565b82525050565b600061142f8284611297565b915081905092915050565b600060608201905061144f6000830186611222565b8181036020830152611461818561125e565b90506114706040830184611414565b949350505050565b600060408201905061148d6000830185611231565b61149a6020830184611414565b9392505050565b6000610100820190506114b7600083018b61124f565b81810360208301526114c9818a61125e565b90506114d86040830189611414565b6114e56060830188611414565b6114f26080830187611231565b6114ff60a0830186611414565b61150c60c0830185611414565b61151960e0830184611414565b9998505050505050505050565b60006020820190508181036000830152611540818461125e565b905092915050565b600060c0820190508181036000830152611562818961125e565b9050611571602083018861124f565b61157e6040830187611414565b61158b6060830186611414565b6115986080830185611240565b6115a560a0830184611414565b979650505050505050565b600060208201905081810360008301526115c9816112c8565b9050919050565b600060208201905081810360008301526115e98161132e565b9050919050565b600060208201905081810360008301526116098161136e565b9050919050565b60006020820190508181036000830152611629816113ae565b9050919050565b60006020820190506116456000830184611414565b92915050565b6000604051905081810181811067ffffffffffffffff821117156116725761167161188b565b5b8060405250919050565b600067ffffffffffffffff8211156116975761169661188b565b5b601f19601f8301169050602081019050919050565b600081519050919050565b600082825260208201905092915050565b600081905092915050565b60006116de82611779565b91506116e983611779565b9250827fffffffffffffffffffffffffffffffffffffffffffffffffffffffffffffffff0382111561171e5761171d61182d565b5b828201905092915050565b600061173482611759565b9050919050565b600061174682611759565b9050919050565b60008115159050919050565b600073ffffffffffffffffffffffffffffffffffffffff82169050919050565b6000819050919050565b600061178e82611795565b9050919050565b60006117a0826117a7565b9050919050565b60006117b282611759565b9050919050565b82818337600083830152505050565b60005b838110156117e65780820151818401526020810190506117cb565b838111156117f5576000848401525b50505050565b6000600282049050600182168061181357607f821691505b602082108114156118275761182661185c565b5b50919050565b7f4e487b7100000000000000000000000000000000000000000000000000000000600052601160045260246000fd5b7f4e487b7100000000000000000000000000000000000000000000000000000000600052602260045260246000fd5b7f4e487b7100000000000000000000000000000000000000000000000000000000600052604160045260246000fd5b6000601f19601f8301169050919050565b6118d481611729565b81146118df57600080fd5b50565b6118eb8161173b565b81146118f657600080fd5b50565b61190281611779565b811461190d57600080fd5b5056fea2646970667358221220da2a4dd3c95f7fd430162593b127d62f7bbb8a10a177f004febe6e0cb5071b5c64736f6c63430008000033",
  "immutableReferences": {},
  "source": "// SPDX-License-Identifier: MIT\npragma solidity ^0.8.0;\n\ncontract KURASAH {\n    // state variables\n    address payable owner;\n\n    //constructor\n\n    constructor() {\n        owner = payable(msg.sender);\n    }\n\n    receive() external payable {}\n\n    fallback() external payable {}\n\n    // struct\n    struct Tender {\n        bool open;\n        string name;\n        uint256 bids;\n        uint256 LowestBid;\n        address payable winner;\n        uint256 winId;\n        uint256 start;\n        uint256 end;\n    }\n\n    struct Bidders {\n        address payable bidder;\n        uint256 biddingAmount;\n    }\n    // modifier\n\n    modifier onlyOwner() {\n        require(msg.sender == owner, \"only owner can run this function \");\n        _;\n    }\n\n    // mappings\n\n    mapping(string => mapping(uint256 => Bidders)) public bidding;\n    mapping(string => Tender) public tenderInfo;\n    mapping(address => uint256) public bidderId;\n\n    // events\n    event BidWinner(address winner, string bidName, uint256 amout);\n    event TenderCreated(string name);\n\n    // tender creation\n    function createTender(string memory _name) public onlyOwner {\n        Tender storage tn = tenderInfo[_name];\n        tn.open = true;\n        tn.name = _name;\n        tn.start = block.timestamp;\n        emit TenderCreated(_name);\n    }\n\n    // check contract Balance\n    function contractBalance() public view returns (uint256) {\n        return ((address(this)).balance);\n    }\n\n    // balance of ether of current user\n    function balanceOf() public view returns (uint256) {\n        uint256 myBalance = msg.sender.balance;\n        return myBalance;\n    }\n\n    // check no. of bids in Tender\n    function numberOfBids(string memory _tender) public view returns (uint256) {\n        Tender storage tn = tenderInfo[_tender];\n        require(tn.open == true, \"Sorry! Bidding is closed now\");\n        return (tn.bids);\n    }\n\n    // bidding\n    function bid(string memory _name, address payable user) public payable {\n        Tender storage tn = tenderInfo[_name];\n        tn.bids = tn.bids + 1;\n        uint256 newId = tn.bids;\n        require(tn.open == true, \"Sorry! Bidding is closed now\");\n        require(msg.value != 0, \"value should not be zero\");\n        uint256 amount = msg.value;\n        bidding[_name][newId] = Bidders(user, amount);\n        bidderId[user] = newId;\n        if (tn.LowestBid == 0) {\n            (payable(address(this))).transfer(amount);\n            tn.LowestBid = amount;\n            tn.winner = user;\n        } else if (amount > tn.LowestBid) {\n            (payable(address(this))).transfer(amount);\n        } else if (amount < tn.LowestBid) {\n            (payable(address(this))).transfer(amount);\n            tn.winner = user;\n            tn.LowestBid = amount;\n        }\n    }\n\n    // close bidding\n    function closeBid(string memory _name) public onlyOwner {\n        Tender storage tn = tenderInfo[_name];\n        tn.open = false;\n        announce(_name);\n    }\n\n    // bid announcment\n    function announce(string memory _name) public {\n        Tender storage tn = tenderInfo[_name];\n        // tn.open == true;\n        owner.transfer(tn.LowestBid);\n        Bidders storage sn = bidding[_name][bidderId[tn.winner]];\n        sn.biddingAmount = 0;\n        emit BidWinner(tn.winner, _name, tn.LowestBid);\n    }\n\n     function info(string memory _Info) public view returns(string memory name,bool open , uint256 bids, uint256 LowestBid, address winner , uint256 winId){\n         return (tenderInfo[_Info].name, tenderInfo[_Info].open, tenderInfo[_Info].bids, tenderInfo[_Info].LowestBid, tenderInfo[_Info].winner, tenderInfo[_Info].winId);\n    }\n\n    // Losers withdrawal\n    function withdraw(string memory _name, address payable user) public {\n        Tender storage tn = tenderInfo[_name];\n        Bidders storage sn = bidding[_name][bidderId[user]];\n        require(\n            sn.biddingAmount > 0 && sn.bidder == user && tn.open == false,\n            \"bid winner cant withdraw, bidder doesnt exist,bid closed \"\n        );\n        (user).transfer(sn.biddingAmount);\n    }\n}\n",
  "sourcePath": "C:\\Users\\TAWFIQ\\Desktop\\ProjectDApp\\kurasah-dapp\\src\\contracts\\KURASAH.sol",
  "compiler": {
    "name": "solc",
    "version": "0.8.0+commit.c7dfd78e.Emscripten.clang"
  },
  "schemaVersion": "3.4.3",
  "updatedAt": "2021-08-31T14:59:50.135Z",
  "networkType": "ethereum",
  "devdoc": {
    "kind": "dev",
    "methods": {},
    "version": 1
  },
  "userdoc": {
    "kind": "user",
    "methods": {},
    "version": 1
  }
}